:100000000C9434000C9451000C9451000C94510049
:100010000C9451000C9451000C9451000C9451001C
:100020000C9451000C9451000C9451000C9451000C
:100030000C9451000C9451000C9451000C945100FC
:100040000C9451000C9451000C947A010C945100C2
:100050000C9451000C94AC010C9451000C94510080
:100060000C9451000C94510011241FBECFEFD8E026
:10007000DEBFCDBF11E0A0E0B1E0E8E5F4E002C0F2
:1000800005900D92AA3CB107D9F721E0AAECB1E0A6
:1000900001C01D92A13DB207E1F70E94DD000C9462
:1000A0002A020C940000ECE7F0E01082808180646A
:1000B0008083808180628083808186608083EAE79C
:1000C000F0E01082808188608083808187608083F7
:1000D00080818068808308958FE384B983E087B945
:1000E0008AB18E7F8AB98AB182608AB91092C000C3
:1000F000E1ECF0E01082808188698083E2ECF0E03E
:10010000108280818660808387E690E09093C500AE
:100110008093C4001092CB010895AC0120E007C089
:100120009091C00095FFFCCF3093C6002F5FFA017D
:10013000E20FF11D30813111F3CF08959091C0008D
:1001400095FFFCCF8093C600089580E091E00E9467
:100150008D008AE00E949E008DE00E949E0088E251
:1001600091E00E948D008AE00E949E008DE00E9436
:100170009E008AE00E949E008DE00E949E008AE31D
:1001800091E00E948D008AE00E949E008DE00E9416
:100190009E008AE00E949E008DE00E949E0080E505
:1001A00091E00E948D008AE00E949E008DE00E94F6
:1001B0009E0081E00E949E0008950E946C000E94B3
:1001C000530078940E94A500FFCFCF93C62F909143
:1001D000CB019130A9F485B9829586958695837077
:1001E00088B91092CB0180E691E00E948D008AE0F0
:1001F0000E949E008DE00E949E000E94A50078C093
:100200009091CB01911174C0813309F041C08AE013
:100210000E949E008DE00E949E0086E691E00E9472
:100220008D008AE00E949E008DE00E949E0080E08A
:1002300091E00E948D008AE00E949E008DE00E9465
:100240009E008BE791E00E948D00EAE7F0E080815C
:10025000806480838C2F0E949E008091D0010E9438
:100260009E008091CD010E949E008091CC010E9451
:100270009E008AE00E949E008DE00E949E008AE01F
:100280000E949E008DE00E949E000E94A50030C04A
:10029000823311F58CE991E00E948D008AE00E9482
:1002A0009E008DE00E949E0081E08093CB0180E063
:1002B00091E00E948D008AE00E949E008DE00E94E5
:1002C0009E0081EB91E00E948D008AE00E949E00DA
:1002D0008DE00E949E000CC083EC91E00E948D0096
:1002E0008AE00E949E008DE00E949E000E94A50070
:1002F000CF9108951F920F920FB60F9211242F9352
:100300003F934F935F936F937F938F939F93AF939D
:10031000BF93EF93FF938091C6008093CA016091D1
:10032000CE018091CA010E94E5008AE00E949E00F1
:100330008DE00E949E00FF91EF91BF91AF919F9140
:100340008F917F916F915F914F913F912F910F907E
:100350000FBE0F901F9018951F920F920FB60F921D
:1003600011242F933F935F936F937F938F939F936A
:10037000AF93BF93EF93FF93E9E7F0E08081809321
:10038000CE01808199E2899F812D112482958F7001
:100390008093D00180812091D00190E034E6239FAA
:1003A0008019910911246AE070E00E9402026093B2
:1003B000CD0120917800309179003091D001809169
:1003C000CD01880F982F990F990F890F94E6399FC7
:1003D000800D1124281B2093CC01EAE7F0E08081F6
:1003E00080618083FF91EF91BF91AF919F918F9139
:1003F0007F916F915F913F912F910F900FBE0F9062
:100400001F90189597FB072E16F4009407D077FDE0
:1004100009D00E94160207FC05D03EF49095819504
:100420009F4F0895709561957F4F0895AA1BBB1B40
:1004300051E107C0AA1FBB1FA617B70710F0A61BE4
:10044000B70B881F991F5A95A9F780959095BC0105
:08045000CD010895F894FFCFDF
:100458002D2D2D2D2D2D2D2D2D2D2D2D2D2D2D2DC4
:100468002D2D2D2D2D2D2D2D2D2D2D2D2D2D2D2DB4
:100478002D2D2D2D2D2D2D00456C69676120756E54
:1004880061206F7063696F6E3A00312E204C65658C
:100498007220506F74656E63696F6D6574726F005A
:1004A800322E20456E766961722041736369690056
:1004B8004C4953544F00456C656769737465206CEB
:1004C80061206F7063696F6E203100456C20766122
:1004D8006C6F7220646520747520706F74656E632C
:1004E800696F6D6574726F2065733A00456C656756
:1004F80069737465206C61206F7063696F6E203258
:10050800004D616E646520756E204361726163748D
:0A0518006572004552524F52000078
:00000001FF
